{
  "abi": [
    {
      "type": "constructor",
      "inputs": [
        {
          "name": "beefyClient",
          "type": "address",
          "internalType": "address"
        },
        {
          "name": "agentExecutor",
          "type": "address",
          "internalType": "address"
        },
        {
          "name": "bridgeHubParaID",
          "type": "uint32",
          "internalType": "ParaID"
        },
        {
          "name": "bridgeHubAgentID",
          "type": "bytes32",
          "internalType": "bytes32"
        },
        {
          "name": "foreignTokenDecimals",
          "type": "uint8",
          "internalType": "uint8"
        },
        {
          "name": "maxDestinationFee",
          "type": "uint128",
          "internalType": "uint128"
        }
      ],
      "stateMutability": "nonpayable"
    },
    {
      "type": "function",
      "name": "AGENT_EXECUTOR",
      "inputs": [],
      "outputs": [
        {
          "name": "",
          "type": "address",
          "internalType": "address"
        }
      ],
      "stateMutability": "view"
    },
    {
      "type": "function",
      "name": "BEEFY_CLIENT",
      "inputs": [],
      "outputs": [
        {
          "name": "",
          "type": "address",
          "internalType": "address"
        }
      ],
      "stateMutability": "view"
    },
    {
      "type": "function",
      "name": "agentExecute",
      "inputs": [
        {
          "name": "data",
          "type": "bytes",
          "internalType": "bytes"
        }
      ],
      "outputs": [],
      "stateMutability": "nonpayable"
    },
    {
      "type": "function",
      "name": "agentOf",
      "inputs": [
        {
          "name": "agentID",
          "type": "bytes32",
          "internalType": "bytes32"
        }
      ],
      "outputs": [
        {
          "name": "",
          "type": "address",
          "internalType": "address"
        }
      ],
      "stateMutability": "view"
    },
    {
      "type": "function",
      "name": "channelNoncesOf",
      "inputs": [
        {
          "name": "channelID",
          "type": "bytes32",
          "internalType": "ChannelID"
        }
      ],
      "outputs": [
        {
          "name": "",
          "type": "uint64",
          "internalType": "uint64"
        },
        {
          "name": "",
          "type": "uint64",
          "internalType": "uint64"
        }
      ],
      "stateMutability": "view"
    },
    {
      "type": "function",
      "name": "channelOperatingModeOf",
      "inputs": [
        {
          "name": "channelID",
          "type": "bytes32",
          "internalType": "ChannelID"
        }
      ],
      "outputs": [
        {
          "name": "",
          "type": "uint8",
          "internalType": "enum OperatingMode"
        }
      ],
      "stateMutability": "view"
    },
    {
      "type": "function",
      "name": "createAgent",
      "inputs": [
        {
          "name": "data",
          "type": "bytes",
          "internalType": "bytes"
        }
      ],
      "outputs": [],
      "stateMutability": "nonpayable"
    },
    {
      "type": "function",
      "name": "createChannel",
      "inputs": [
        {
          "name": "data",
          "type": "bytes",
          "internalType": "bytes"
        }
      ],
      "outputs": [],
      "stateMutability": "nonpayable"
    },
    {
      "type": "function",
      "name": "dropRescueAbility",
      "inputs": [],
      "outputs": [],
      "stateMutability": "nonpayable"
    },
    {
      "type": "function",
      "name": "implementation",
      "inputs": [],
      "outputs": [
        {
          "name": "",
          "type": "address",
          "internalType": "address"
        }
      ],
      "stateMutability": "view"
    },
    {
      "type": "function",
      "name": "initialize",
      "inputs": [
        {
          "name": "data",
          "type": "bytes",
          "internalType": "bytes"
        }
      ],
      "outputs": [],
      "stateMutability": "nonpayable"
    },
    {
      "type": "function",
      "name": "isTokenRegistered",
      "inputs": [
        {
          "name": "token",
          "type": "address",
          "internalType": "address"
        }
      ],
      "outputs": [
        {
          "name": "",
          "type": "bool",
          "internalType": "bool"
        }
      ],
      "stateMutability": "view"
    },
    {
      "type": "function",
      "name": "operatingMode",
      "inputs": [],
      "outputs": [
        {
          "name": "",
          "type": "uint8",
          "internalType": "enum OperatingMode"
        }
      ],
      "stateMutability": "view"
    },
    {
      "type": "function",
      "name": "pricingParameters",
      "inputs": [],
      "outputs": [
        {
          "name": "",
          "type": "uint256",
          "internalType": "UD60x18"
        },
        {
          "name": "",
          "type": "uint128",
          "internalType": "uint128"
        }
      ],
      "stateMutability": "view"
    },
    {
      "type": "function",
      "name": "quoteRegisterTokenFee",
      "inputs": [],
      "outputs": [
        {
          "name": "",
          "type": "uint256",
          "internalType": "uint256"
        }
      ],
      "stateMutability": "view"
    },
    {
      "type": "function",
      "name": "quoteSendTokenFee",
      "inputs": [
        {
          "name": "token",
          "type": "address",
          "internalType": "address"
        },
        {
          "name": "destinationChain",
          "type": "uint32",
          "internalType": "ParaID"
        },
        {
          "name": "destinationFee",
          "type": "uint128",
          "internalType": "uint128"
        }
      ],
      "outputs": [
        {
          "name": "",
          "type": "uint256",
          "internalType": "uint256"
        }
      ],
      "stateMutability": "view"
    },
    {
      "type": "function",
      "name": "registerToken",
      "inputs": [
        {
          "name": "token",
          "type": "address",
          "internalType": "address"
        }
      ],
      "outputs": [],
      "stateMutability": "payable"
    },
    {
      "type": "function",
      "name": "rescue",
      "inputs": [
        {
          "name": "impl",
          "type": "address",
          "internalType": "address"
        },
        {
          "name": "implCodeHash",
          "type": "bytes32",
          "internalType": "bytes32"
        },
        {
          "name": "initializerParams",
          "type": "bytes",
          "internalType": "bytes"
        }
      ],
      "outputs": [],
      "stateMutability": "nonpayable"
    },
    {
      "type": "function",
      "name": "rescueOperator",
      "inputs": [],
      "outputs": [
        {
          "name": "",
          "type": "address",
          "internalType": "address"
        }
      ],
      "stateMutability": "view"
    },
    {
      "type": "function",
      "name": "sendToken",
      "inputs": [
        {
          "name": "token",
          "type": "address",
          "internalType": "address"
        },
        {
          "name": "destinationChain",
          "type": "uint32",
          "internalType": "ParaID"
        },
        {
          "name": "destinationAddress",
          "type": "tuple",
          "internalType": "struct MultiAddress",
          "components": [
            {
              "name": "kind",
              "type": "uint8",
              "internalType": "enum Kind"
            },
            {
              "name": "data",
              "type": "bytes",
              "internalType": "bytes"
            }
          ]
        },
        {
          "name": "destinationFee",
          "type": "uint128",
          "internalType": "uint128"
        },
        {
          "name": "amount",
          "type": "uint128",
          "internalType": "uint128"
        }
      ],
      "outputs": [],
      "stateMutability": "payable"
    },
    {
      "type": "function",
      "name": "setOperatingMode",
      "inputs": [
        {
          "name": "data",
          "type": "bytes",
          "internalType": "bytes"
        }
      ],
      "outputs": [],
      "stateMutability": "nonpayable"
    },
    {
      "type": "function",
      "name": "setPricingParameters",
      "inputs": [
        {
          "name": "data",
          "type": "bytes",
          "internalType": "bytes"
        }
      ],
      "outputs": [],
      "stateMutability": "nonpayable"
    },
    {
      "type": "function",
      "name": "setTokenTransferFees",
      "inputs": [
        {
          "name": "data",
          "type": "bytes",
          "internalType": "bytes"
        }
      ],
      "outputs": [],
      "stateMutability": "nonpayable"
    },
    {
      "type": "function",
      "name": "submitV1",
      "inputs": [
        {
          "name": "message",
          "type": "tuple",
          "internalType": "struct InboundMessage",
          "components": [
            {
              "name": "channelID",
              "type": "bytes32",
              "internalType": "ChannelID"
            },
            {
              "name": "nonce",
              "type": "uint64",
              "internalType": "uint64"
            },
            {
              "name": "command",
              "type": "uint8",
              "internalType": "enum Command"
            },
            {
              "name": "params",
              "type": "bytes",
              "internalType": "bytes"
            },
            {
              "name": "maxDispatchGas",
              "type": "uint64",
              "internalType": "uint64"
            },
            {
              "name": "maxFeePerGas",
              "type": "uint256",
              "internalType": "uint256"
            },
            {
              "name": "reward",
              "type": "uint256",
              "internalType": "uint256"
            },
            {
              "name": "id",
              "type": "bytes32",
              "internalType": "bytes32"
            }
          ]
        },
        {
          "name": "leafProof",
          "type": "bytes32[]",
          "internalType": "bytes32[]"
        },
        {
          "name": "headerProof",
          "type": "tuple",
          "internalType": "struct Verification.Proof",
          "components": [
            {
              "name": "header",
              "type": "tuple",
              "internalType": "struct Verification.ParachainHeader",
              "components": [
                {
                  "name": "parentHash",
                  "type": "bytes32",
                  "internalType": "bytes32"
                },
                {
                  "name": "number",
                  "type": "uint256",
                  "internalType": "uint256"
                },
                {
                  "name": "stateRoot",
                  "type": "bytes32",
                  "internalType": "bytes32"
                },
                {
                  "name": "extrinsicsRoot",
                  "type": "bytes32",
                  "internalType": "bytes32"
                },
                {
                  "name": "digestItems",
                  "type": "tuple[]",
                  "internalType": "struct Verification.DigestItem[]",
                  "components": [
                    {
                      "name": "kind",
                      "type": "uint256",
                      "internalType": "uint256"
                    },
                    {
                      "name": "consensusEngineID",
                      "type": "bytes4",
                      "internalType": "bytes4"
                    },
                    {
                      "name": "data",
                      "type": "bytes",
                      "internalType": "bytes"
                    }
                  ]
                }
              ]
            },
            {
              "name": "headProof",
              "type": "tuple",
              "internalType": "struct Verification.HeadProof",
              "components": [
                {
                  "name": "pos",
                  "type": "uint256",
                  "internalType": "uint256"
                },
                {
                  "name": "width",
                  "type": "uint256",
                  "internalType": "uint256"
                },
                {
                  "name": "proof",
                  "type": "bytes32[]",
                  "internalType": "bytes32[]"
                }
              ]
            },
            {
              "name": "leafPartial",
              "type": "tuple",
              "internalType": "struct Verification.MMRLeafPartial",
              "components": [
                {
                  "name": "version",
                  "type": "uint8",
                  "internalType": "uint8"
                },
                {
                  "name": "parentNumber",
                  "type": "uint32",
                  "internalType": "uint32"
                },
                {
                  "name": "parentHash",
                  "type": "bytes32",
                  "internalType": "bytes32"
                },
                {
                  "name": "nextAuthoritySetID",
                  "type": "uint64",
                  "internalType": "uint64"
                },
                {
                  "name": "nextAuthoritySetLen",
                  "type": "uint32",
                  "internalType": "uint32"
                },
                {
                  "name": "nextAuthoritySetRoot",
                  "type": "bytes32",
                  "internalType": "bytes32"
                }
              ]
            },
            {
              "name": "leafProof",
              "type": "bytes32[]",
              "internalType": "bytes32[]"
            },
            {
              "name": "leafProofOrder",
              "type": "uint256",
              "internalType": "uint256"
            }
          ]
        }
      ],
      "outputs": [],
      "stateMutability": "nonpayable"
    },
    {
      "type": "function",
      "name": "transferNativeFromAgent",
      "inputs": [
        {
          "name": "data",
          "type": "bytes",
          "internalType": "bytes"
        }
      ],
      "outputs": [],
      "stateMutability": "nonpayable"
    },
    {
      "type": "function",
      "name": "updateChannel",
      "inputs": [
        {
          "name": "data",
          "type": "bytes",
          "internalType": "bytes"
        }
      ],
      "outputs": [],
      "stateMutability": "nonpayable"
    },
    {
      "type": "function",
      "name": "upgrade",
      "inputs": [
        {
          "name": "data",
          "type": "bytes",
          "internalType": "bytes"
        }
      ],
      "outputs": [],
      "stateMutability": "nonpayable"
    },
    {
      "type": "event",
      "name": "AgentCreated",
      "inputs": [
        {
          "name": "agentID",
          "type": "bytes32",
          "indexed": false,
          "internalType": "bytes32"
        },
        {
          "name": "agent",
          "type": "address",
          "indexed": false,
          "internalType": "address"
        }
      ],
      "anonymous": false
    },
    {
      "type": "event",
      "name": "AgentFundsWithdrawn",
      "inputs": [
        {
          "name": "agentID",
          "type": "bytes32",
          "indexed": true,
          "internalType": "bytes32"
        },
        {
          "name": "recipient",
          "type": "address",
          "indexed": true,
          "internalType": "address"
        },
        {
          "name": "amount",
          "type": "uint256",
          "indexed": false,
          "internalType": "uint256"
        }
      ],
      "anonymous": false
    },
    {
      "type": "event",
      "name": "ChannelCreated",
      "inputs": [
        {
          "name": "channelID",
          "type": "bytes32",
          "indexed": true,
          "internalType": "ChannelID"
        }
      ],
      "anonymous": false
    },
    {
      "type": "event",
      "name": "ChannelUpdated",
      "inputs": [
        {
          "name": "channelID",
          "type": "bytes32",
          "indexed": true,
          "internalType": "ChannelID"
        }
      ],
      "anonymous": false
    },
    {
      "type": "event",
      "name": "InboundMessageDispatched",
      "inputs": [
        {
          "name": "channelID",
          "type": "bytes32",
          "indexed": true,
          "internalType": "ChannelID"
        },
        {
          "name": "nonce",
          "type": "uint64",
          "indexed": false,
          "internalType": "uint64"
        },
        {
          "name": "messageID",
          "type": "bytes32",
          "indexed": true,
          "internalType": "bytes32"
        },
        {
          "name": "success",
          "type": "bool",
          "indexed": false,
          "internalType": "bool"
        }
      ],
      "anonymous": false
    },
    {
      "type": "event",
      "name": "OperatingModeChanged",
      "inputs": [
        {
          "name": "mode",
          "type": "uint8",
          "indexed": false,
          "internalType": "enum OperatingMode"
        }
      ],
      "anonymous": false
    },
    {
      "type": "event",
      "name": "OutboundMessageAccepted",
      "inputs": [
        {
          "name": "channelID",
          "type": "bytes32",
          "indexed": true,
          "internalType": "ChannelID"
        },
        {
          "name": "nonce",
          "type": "uint64",
          "indexed": false,
          "internalType": "uint64"
        },
        {
          "name": "messageID",
          "type": "bytes32",
          "indexed": true,
          "internalType": "bytes32"
        },
        {
          "name": "payload",
          "type": "bytes",
          "indexed": false,
          "internalType": "bytes"
        }
      ],
      "anonymous": false
    },
    {
      "type": "event",
      "name": "PricingParametersChanged",
      "inputs": [],
      "anonymous": false
    },
    {
      "type": "event",
      "name": "TokenRegistrationSent",
      "inputs": [
        {
          "name": "token",
          "type": "address",
          "indexed": false,
          "internalType": "address"
        }
      ],
      "anonymous": false
    },
    {
      "type": "event",
      "name": "TokenSent",
      "inputs": [
        {
          "name": "token",
          "type": "address",
          "indexed": true,
          "internalType": "address"
        },
        {
          "name": "sender",
          "type": "address",
          "indexed": true,
          "internalType": "address"
        },
        {
          "name": "destinationChain",
          "type": "uint32",
          "indexed": true,
          "internalType": "ParaID"
        },
        {
          "name": "destinationAddress",
          "type": "tuple",
          "indexed": false,
          "internalType": "struct MultiAddress",
          "components": [
            {
              "name": "kind",
              "type": "uint8",
              "internalType": "enum Kind"
            },
            {
              "name": "data",
              "type": "bytes",
              "internalType": "bytes"
            }
          ]
        },
        {
          "name": "amount",
          "type": "uint128",
          "indexed": false,
          "internalType": "uint128"
        }
      ],
      "anonymous": false
    },
    {
      "type": "event",
      "name": "TokenTransferFeesChanged",
      "inputs": [],
      "anonymous": false
    },
    {
      "type": "event",
      "name": "Upgraded",
      "inputs": [
        {
          "name": "implementation",
          "type": "address",
          "indexed": true,
          "internalType": "address"
        }
      ],
      "anonymous": false
    },
    {
      "type": "error",
      "name": "AgentAlreadyCreated",
      "inputs": []
    },
    {
      "type": "error",
      "name": "AgentDoesNotExist",
      "inputs": []
    },
    {
      "type": "error",
      "name": "AgentExecutionFailed",
      "inputs": [
        {
          "name": "returndata",
          "type": "bytes",
          "internalType": "bytes"
        }
      ]
    },
    {
      "type": "error",
      "name": "ChannelAlreadyCreated",
      "inputs": []
    },
    {
      "type": "error",
      "name": "ChannelDoesNotExist",
      "inputs": []
    },
    {
      "type": "error",
      "name": "Disabled",
      "inputs": []
    },
    {
      "type": "error",
      "name": "FeePaymentToLow",
      "inputs": []
    },
    {
      "type": "error",
      "name": "InvalidAgentExecutionPayload",
      "inputs": []
    },
    {
      "type": "error",
      "name": "InvalidChannelUpdate",
      "inputs": []
    },
    {
      "type": "error",
      "name": "InvalidCodeHash",
      "inputs": []
    },
    {
      "type": "error",
      "name": "InvalidConstructorParams",
      "inputs": []
    },
    {
      "type": "error",
      "name": "InvalidContract",
      "inputs": []
    },
    {
      "type": "error",
      "name": "InvalidNonce",
      "inputs": []
    },
    {
      "type": "error",
      "name": "InvalidProof",
      "inputs": []
    },
    {
      "type": "error",
      "name": "NativeTransferFailed",
      "inputs": []
    },
    {
      "type": "error",
      "name": "NotEnoughGas",
      "inputs": []
    },
    {
      "type": "error",
      "name": "PRBMath_MulDiv18_Overflow",
      "inputs": [
        {
          "name": "x",
          "type": "uint256",
          "internalType": "uint256"
        },
        {
          "name": "y",
          "type": "uint256",
          "internalType": "uint256"
        }
      ]
    },
    {
      "type": "error",
      "name": "PRBMath_MulDiv_Overflow",
      "inputs": [
        {
          "name": "x",
          "type": "uint256",
          "internalType": "uint256"
        },
        {
          "name": "y",
          "type": "uint256",
          "internalType": "uint256"
        },
        {
          "name": "denominator",
          "type": "uint256",
          "internalType": "uint256"
        }
      ]
    },
    {
      "type": "error",
      "name": "PRBMath_UD60x18_Convert_Overflow",
      "inputs": [
        {
          "name": "x",
          "type": "uint256",
          "internalType": "uint256"
        }
      ]
    },
    {
      "type": "error",
      "name": "PRBMath_UD60x18_Exp2_InputTooBig",
      "inputs": [
        {
          "name": "x",
          "type": "uint256",
          "internalType": "UD60x18"
        }
      ]
    },
    {
      "type": "error",
      "name": "PRBMath_UD60x18_Log_InputTooSmall",
      "inputs": [
        {
          "name": "x",
          "type": "uint256",
          "internalType": "UD60x18"
        }
      ]
    },
    {
      "type": "error",
      "name": "Unauthorized",
      "inputs": []
    }
  ],
  "bytecode": {
    "object": "0x61016060405261271060005534801561001757600080fd5b506040516154fb3803806154fb833981016040819052610036916100f3565b63ffffffff84161580610047575082155b1561006557604051631510b77f60e01b815260040160405180910390fd5b6001600160a01b0386811660a0528516608052600884811b63ff00ff001662ff00ff9186901c9190911617601081811b91901c1760e01b6001600160e01b03191660e05263ffffffff90931660c0526101009190915260ff16610140526001600160801b031661012052506101859050565b80516001600160a01b03811681146100ee57600080fd5b919050565b60008060008060008060c0878903121561010c57600080fd5b610115876100d7565b9550610123602088016100d7565b9450604087015163ffffffff8116811461013c57600080fd5b60608801516080890151919550935060ff8116811461015a57600080fd5b60a08801519092506001600160801b038116811461017757600080fd5b809150509295509295509295565b60805160a05160c05160e0516101005161012051610140516152fc6101ff6000396000612e270152600081816116db01526119e0015260008181610ee70152610f3701526000612b83015260005050600081816104f00152612b610152600081816103cc01528181610c630152612ebb01526152fc6000f3fe6080604052600436106101ac5760003560e01c806352054834116100ec578063928bc49d1161008a578063c3b8ec8e11610064578063c3b8ec8e14610572578063cd5a76de14610592578063df4ed829146105a7578063eac09209146105c757600080fd5b8063928bc49d146105125780639a870c8b14610532578063afce33c41461055257600080fd5b80635e6dae26116100c65780635e6dae261461047b578063805ce31d1461049b5780638257f3d5146104be57806390ffc4f9146104de57600080fd5b806352054834146104335780635b2e9c4c146104465780635c60da1b1461046657600080fd5b806326aa101f1161015957806338004f691161013357806338004f69146103645780633c9c3b451461039a578063423e69b6146103ba578063439fab911461041357600080fd5b806326aa101f146102d35780632a6c32291461030357806335ede9691461034457600080fd5b80630c86ea461161018a5780630c86ea461461027357806317abcf601461029357806325394645146102b357600080fd5b80630705f465146101b157806309824a80146101e75780630b617646146101fc575b600080fd5b3480156101bd57600080fd5b506101d16101cc366004613c58565b610611565b6040516101de9190613ca0565b60405180910390f35b6101fa6101f5366004613cde565b610628565b005b34801561020857600080fd5b507f59ef95eb9983b1a4650e1bc666384b8507689fc8aca3edd429d7e07c0ca9d2f6547f59ef95eb9983b1a4650e1bc666384b8507689fc8aca3edd429d7e07c0ca9d2f754604080519283526fffffffffffffffffffffffffffffffff9091166020830152016101de565b34801561027f57600080fd5b506101fa61028e366004613d42565b6106f9565b34801561029f57600080fd5b506101fa6102ae366004613d42565b6107e7565b3480156102bf57600080fd5b506101fa6102ce366004613d42565b6109a6565b3480156102df57600080fd5b506102f36102ee366004613cde565b610a0b565b60405190151581526020016101de565b34801561030f57600080fd5b5061032361031e366004613c58565b610ab6565b6040805167ffffffffffffffff9384168152929091166020830152016101de565b34801561035057600080fd5b506101fa61035f366004613d42565b610aed565b34801561037057600080fd5b507e96e2f02350077f4ff1746770dbe5db3c04b7db2c8763c8fc21bf66b35e96ab5460ff166101d1565b3480156103a657600080fd5b506101fa6103b5366004613d84565b610d41565b3480156103c657600080fd5b506103ee7f000000000000000000000000000000000000000000000000000000000000000081565b60405173ffffffffffffffffffffffffffffffffffffffff90911681526020016101de565b34801561041f57600080fd5b506101fa61042e366004613d42565b610dfa565b6101fa610441366004613e1b565b611685565b34801561045257600080fd5b506101fa610461366004613d42565b611705565b34801561047257600080fd5b506103ee6117de565b34801561048757600080fd5b506103ee610496366004613c58565b61180d565b3480156104a757600080fd5b506104b0611818565b6040519081526020016101de565b3480156104ca57600080fd5b506101fa6104d9366004613d42565b61188e565b3480156104ea57600080fd5b506103ee7f000000000000000000000000000000000000000000000000000000000000000081565b34801561051e57600080fd5b506104b061052d366004613ea2565b611977565b34801561053e57600080fd5b506101fa61054d366004613d42565b611a51565b34801561055e57600080fd5b506101fa61056d366004613d42565b611b21565b34801561057e57600080fd5b506101fa61058d366004613d42565b611c4e565b34801561059e57600080fd5b506101fa611de5565b3480156105b357600080fd5b506101fa6105c2366004613f00565b611e7e565b3480156105d357600080fd5b507f06e511110254c925caa9863541ca318b1a9a0615f0ac1669e771c5d47be3a4bb5473ffffffffffffffffffffffffffffffffffffffff166103ee565b60008061061d83612440565b5460ff169392505050565b6040517f09824a8000000000000000000000000000000000000000000000000000000000815273ffffffffffffffffffffffffffffffffffffffff821660048201526106f69073__$8f2c9aef4b12e754f755959dab335b34dd$__906309824a80906024015b600060405180830381865af41580156106ab573d6000803e3d6000fd5b505050506040513d6000823e601f3d9081017fffffffffffffffffffffffffffffffffffffffffffffffffffffffffffffffe01682016040526106f191908101906141bd565b6124c2565b50565b333014610732576040517f82b4290000000000000000000000000000000000000000000000000000000000815260040160405180910390fd5b7f59ef95eb9983b1a4650e1bc666384b8507689fc8aca3edd429d7e07c0ca9d2f660006107618484018561424f565b8051835560208101516001840180547fffffffffffffffffffffffffffffffff00000000000000000000000000000000166fffffffffffffffffffffffffffffffff9092169190911790556040808201516002850155519091507f5e3c25378b5946068b94aa2ea10c4c1e215cc975f994322b159ddc9237a973d490600090a150505050565b333014610820576040517f82b4290000000000000000000000000000000000000000000000000000000000815260040160405180910390fd5b7e96e2f02350077f4ff1746770dbe5db3c04b7db2c8763c8fc21bf66b35e96ab600061084e848401856142a1565b9050600061085f82602001516126fe565b8251600090815260018086016020526040909120908101549192509073ffffffffffffffffffffffffffffffffffffffff16156108c8576040517f1f6206e500000000000000000000000000000000000000000000000000000000815260040160405180910390fd5b6040830151815482907fffffffffffffffffffffffffffffffffffffffffffffffffffffffffffffff00166001838181111561090657610906613c71565b02179055506001810180547fffffffffffffffffffffffff00000000000000000000000000000000000000001673ffffffffffffffffffffffffffffffffffffffff841617905580547fffffffffffffffffffffffffffffff00000000000000000000000000000000ff16815582516040517fe7e6b36c9bc4c7817d3879c45d6ce1edd3c61b1966c488f1817697bb0b70452590600090a2505050505050565b3330146109df576040517f82b4290000000000000000000000000000000000000000000000000000000000815260040160405180910390fd5b60006109ed82840184614332565b9050610a06816000015182602001518360400151612778565b505050565b6040517f26aa101f00000000000000000000000000000000000000000000000000000000815273ffffffffffffffffffffffffffffffffffffffff8216600482015260009073__$8f2c9aef4b12e754f755959dab335b34dd$__906326aa101f90602401602060405180830381865af4158015610a8c573d6000803e3d6000fd5b505050506040513d601f19601f82011682018060405250810190610ab091906143bb565b92915050565b6000806000610ac484612440565b5467ffffffffffffffff6101008204811696690100000000000000000090920416945092505050565b333014610b26576040517f82b4290000000000000000000000000000000000000000000000000000000000815260040160405180910390fd5b6000610b34828401846143d6565b90506000610b4582600001516126fe565b9050816020015151600003610b86576040517f27895bdc00000000000000000000000000000000000000000000000000000000815260040160405180910390fd5b60008260200151604051602401610b9d9190614497565b604080517fffffffffffffffffffffffffffffffffffffffffffffffffffffffffffffffe08184030181529181526020820180517bffffffffffffffffffffffffffffffffffffffffffffffffffffffff167f09c5eabe00000000000000000000000000000000000000000000000000000000179052517f9bb66b28000000000000000000000000000000000000000000000000000000008152909150600090819073ffffffffffffffffffffffffffffffffffffffff851690639bb66b2890610c8d907f00000000000000000000000000000000000000000000000000000000000000009087906004016144aa565b6000604051808303816000875af1158015610cac573d6000803e3d6000fd5b505050506040513d6000823e601f3d9081017fffffffffffffffffffffffffffffffffffffffffffffffffffffffffffffffe0168201604052610cf291908101906144d9565b9150915081610d3857806040517f3f296743000000000000000000000000000000000000000000000000000000008152600401610d2f9190614497565b60405180910390fd5b50505050505050565b7f06e511110254c925caa9863541ca318b1a9a0615f0ac1669e771c5d47be3a4bb805473ffffffffffffffffffffffffffffffffffffffff163314610db2576040517f82b4290000000000000000000000000000000000000000000000000000000000815260040160405180910390fd5b610df3858585858080601f01602080910402602001604051908101604052809392919081815260200183838082843760009201919091525061277892505050565b5050505050565b6000610e247f360894a13ba1a3210667c828492db98dca3e2076cc3735a920a3ca505d382bbc5490565b73ffffffffffffffffffffffffffffffffffffffff1603610e71576040517f82b4290000000000000000000000000000000000000000000000000000000000815260040160405180910390fd5b7e96e2f02350077f4ff1746770dbe5db3c04b7db2c8763c8fc21bf66b35e96ab6000610e9f84840185614527565b805183549192509083907fffffffffffffffffffffffffffffffffffffffffffffffffffffffffffffff001660018381811115610ede57610ede613c71565b021790555060007f0000000000000000000000000000000000000000000000000000000000000000604051610f1290613c4b565b908152602001604051809103906000f080158015610f34573d6000803e3d6000fd5b507f00000000000000000000000000000000000000000000000000000000000000006000908152600285016020908152604080832080547fffffffffffffffffffffffff00000000000000000000000000000000000000001673ffffffffffffffffffffffffffffffffffffffff8616908117909155815160808101835284815280840185905280830185905260608101919091526001808552808901909352922082518154949550929390929183917fffffffffffffffffffffffffffffffffffffffffffffffffffffffffffffff001690838181111561101857611018613c71565b021790555060208281015182546040808601517fffffffffffffffffffffffffffffff00000000000000000000000000000000ff90921661010067ffffffffffffffff948516027fffffffffffffffffffffffffffffff0000000000000000ffffffffffffffffff161769010000000000000000009390921692909202178355606093840151600193840180547fffffffffffffffffffffffff00000000000000000000000000000000000000001673ffffffffffffffffffffffffffffffffffffffff9283161790558151608081018352600080825281850181905281840181905291871695810195909552600281528784019092529020825181549192909183917fffffffffffffffffffffffffffffffffffffffffffffffffffffffffffffff0090911690838181111561115157611151613c71565b0217905550602082015181546040808501517fffffffffffffffffffffffffffffff00000000000000000000000000000000ff90921661010067ffffffffffffffff948516027fffffffffffffffffffffffffffffff0000000000000000ffffffffffffffffff161769010000000000000000009390921692909202178255606090920151600190910180547fffffffffffffffffffffffff00000000000000000000000000000000000000001673ffffffffffffffffffffffffffffffffffffffff909216919091179055608083015190516000919061123190613c4b565b908152602001604051809103906000f080158015611253573d6000803e3d6000fd5b5060808481015160009081526002870160209081526040808320805473ffffffffffffffffffffffffffffffffffffffff87167fffffffffffffffffffffffff000000000000000000000000000000000000000090911681179091558151948501825283855284830184905284820184905260608086019190915288015181517f70617261000000000000000000000000000000000000000000000000000000008185015260e09190911b7fffffffff00000000000000000000000000000000000000000000000000000000166024820152815160088183030181526028909101825280519083012083526001808a0190925290912082518154949550929390929183917fffffffffffffffffffffffffffffffffffffffffffffffffffffffffffffff001690838181111561138b5761138b613c71565b021790555060208201518154604084015167ffffffffffffffff9081166901000000000000000000027fffffffffffffffffffffffffffffff0000000000000000ffffffffffffffffff9190931661010002167fffffffffffffffffffffffffffffff00000000000000000000000000000000ff909116171781556060909101516001909101805473ffffffffffffffffffffffffffffffffffffffff9092167fffffffffffffffffffffffff0000000000000000000000000000000000000000909216919091179055600061147e7f59ef95eb9983b1a4650e1bc666384b8507689fc8aca3edd429d7e07c0ca9d2f690565b6040850151815560208501516001820180547fffffffffffffffffffffffffffffffff00000000000000000000000000000000166fffffffffffffffffffffffffffffffff928316179055610100860151600283015560608601517f8d3b47662f045c362f825b520d7ddf7a0e5f6703a828606de6840b3652b8c22f805473ffffffffffffffffffffffffffffffffffffffff87167fffffffffffffffffffffffff000000000000000000000000000000000000000063ffffffff9094167401000000000000000000000000000000000000000002939093167fffffffffffffffff0000000000000000000000000000000000000000000000009091161791909117905560e08601517f8d3b47662f045c362f825b520d7ddf7a0e5f6703a828606de6840b3652b8c2315560a086015160c08701518216700100000000000000000000000000000000029116177f8d3b47662f045c362f825b520d7ddf7a0e5f6703a828606de6840b3652b8c2305590507f8d3b47662f045c362f825b520d7ddf7a0e5f6703a828606de6840b3652b8c22e60007f06e511110254c925caa9863541ca318b1a9a0615f0ac1669e771c5d47be3a4bb610120969096015186547fffffffffffffffffffffffff00000000000000000000000000000000000000001673ffffffffffffffffffffffffffffffffffffffff909116179095555050505050505050565b6040517f711d8291000000000000000000000000000000000000000000000000000000008152610df39073__$8f2c9aef4b12e754f755959dab335b34dd$__9063711d82919061068e90899033908a908a908a907f0000000000000000000000000000000000000000000000000000000000000000908b90600401614681565b33301461173e576040517f82b4290000000000000000000000000000000000000000000000000000000000815260040160405180910390fd5b7f8d3b47662f045c362f825b520d7ddf7a0e5f6703a828606de6840b3652b8c22e600061176d84840185614726565b805160208201516fffffffffffffffffffffffffffffffff9081167001000000000000000000000000000000000291161760028401556040808201516003850155519091507f4793c0cb5bef4b1fdbbfbcf17e06991844eb881088b012442af17a12ff38d5cd90600090a150505050565b60006118087f360894a13ba1a3210667c828492db98dca3e2076cc3735a920a3ca505d382bbc5490565b905090565b6000610ab0826126fe565b600061180873__$8f2c9aef4b12e754f755959dab335b34dd$__63b02b33206040518163ffffffff1660e01b81526004016040805180830381865af4158015611865573d6000803e3d6000fd5b505050506040513d601f19601f820116820180604052508101906118899190614757565b612989565b3330146118c7576040517f82b4290000000000000000000000000000000000000000000000000000000000815260040160405180910390fd5b7e96e2f02350077f4ff1746770dbe5db3c04b7db2c8763c8fc21bf66b35e96ab60006118f584840185614773565b805183549192509083907fffffffffffffffffffffffffffffffffffffffffffffffffffffffffffffff00166001838181111561193457611934613c71565b021790555080516040517f4016a1377b8961c4aa6f3a2d3de830a685ddbfe0f228ffc0208eb96304c4cf1a9161196991613ca0565b60405180910390a150505050565b6040517fbeb9a0bb00000000000000000000000000000000000000000000000000000000815273ffffffffffffffffffffffffffffffffffffffff8416600482015263ffffffff831660248201526fffffffffffffffffffffffffffffffff80831660448301527f0000000000000000000000000000000000000000000000000000000000000000166064820152600090611a479073__$8f2c9aef4b12e754f755959dab335b34dd$__9063beb9a0bb906084016040805180830381865af4158015611865573d6000803e3d6000fd5b90505b9392505050565b333014611a8a576040517f82b4290000000000000000000000000000000000000000000000000000000000815260040160405180910390fd5b6000611a988284018461479f565b90506000611aa982600001516126fe565b9050611abe8183602001518460400151612a25565b816020015173ffffffffffffffffffffffffffffffffffffffff1682600001517ff953871855f78d5ccdd6268f2d9d69fc67f26542a35d2bba1c615521aed570548460400151604051611b1391815260200190565b60405180910390a350505050565b333014611b5a576040517f82b4290000000000000000000000000000000000000000000000000000000000815260040160405180910390fd5b6000611b68828401846147c9565b90506000611b798260000151612440565b82519091506001148015611ba35750600082602001516001811115611ba057611ba0613c71565b14155b15611bda576040517fb24a3b7700000000000000000000000000000000000000000000000000000000815260040160405180910390fd5b6020820151815482907fffffffffffffffffffffffffffffffffffffffffffffffffffffffffffffff001660018381811115611c1857611c18613c71565b021790555081516040517f66e174b5e03ba247add8660a34e70bdd484239fe794c2567772e8e93a5c1696b90600090a250505050565b333014611c87576040517f82b4290000000000000000000000000000000000000000000000000000000000815260040160405180910390fd5b7e96e2f02350077f4ff1746770dbe5db3c04b7db2c8763c8fc21bf66b35e96ab6000611cb5848401856147ff565b8051600090815260028401602052604090205490915073ffffffffffffffffffffffffffffffffffffffff1615611d18576040517f4d7456e400000000000000000000000000000000000000000000000000000000815260040160405180910390fd5b60008160000151604051611d2b90613c4b565b908152602001604051809103906000f080158015611d4d573d6000803e3d6000fd5b508251600090815260028501602090815260409182902080547fffffffffffffffffffffffff00000000000000000000000000000000000000001673ffffffffffffffffffffffffffffffffffffffff851690811790915585518351908152918201529192507f7c96960a1ebd8cc753b10836ea25bd7c9c4f8cd43590db1e8b3648cb0ec4cc89910160405180910390a15050505050565b7f06e511110254c925caa9863541ca318b1a9a0615f0ac1669e771c5d47be3a4bb805473ffffffffffffffffffffffffffffffffffffffff163314611e56576040517f82b4290000000000000000000000000000000000000000000000000000000000815260040160405180910390fd5b80547fffffffffffffffffffffffff0000000000000000000000000000000000000000169055565b60005a90506000611e8f8635612440565b8054909150611eae90610100900467ffffffffffffffff166001614852565b67ffffffffffffffff16611ec86040880160208901614892565b67ffffffffffffffff1614611f09576040517f756688fe00000000000000000000000000000000000000000000000000000000815260040160405180910390fd5b8054610100900467ffffffffffffffff16816001611f26836148ad565b91906101000a81548167ffffffffffffffff021916908367ffffffffffffffff16021790555050600086604051602001611f6091906148e3565b6040516020818303038152906040528051906020012090506000611fb8878780806020026020016040519081016040528093929190818152602001838360200280828437600092019190915250869250612ad3915050565b9050611fc48186612b16565b611ffa576040517f09bde33900000000000000000000000000000000000000000000000000000000815260040160405180910390fd5b600061200c60a08a0160808b01614892565b67ffffffffffffffff16905060005481612026919061499c565b5a101561205f576040517fdd629f8600000000000000000000000000000000000000000000000000000000815260040160405180910390fd5b6001600061207360608c0160408d016149af565b600881111561208457612084613c71565b036120f757306335ede9698361209d60608e018e6149ca565b6040518463ffffffff1660e01b81526004016120ba929190614a2f565b600060405180830381600088803b1580156120d457600080fd5b5087f1935050505080156120e6575060015b6120f257506000612328565b612328565b600261210960608c0160408d016149af565b600881111561211a5761211a613c71565b03612133573063c3b8ec8e8361209d60608e018e6149ca565b600361214560608c0160408d016149af565b600881111561215657612156613c71565b0361216f57306317abcf608361209d60608e018e6149ca565b600461218160608c0160408d016149af565b600881111561219257612192613c71565b036121ab573063afce33c48361209d60608e018e6149ca565b60056121bd60608c0160408d016149af565b60088111156121ce576121ce613c71565b036121e75730638257f3d58361209d60608e018e6149ca565b60066121f960608c0160408d016149af565b600881111561220a5761220a613c71565b036122235730639a870c8b8361209d60608e018e6149ca565b600161223560608c0160408d016149af565b600881111561224657612246613c71565b0361225f573063253946458361209d60608e018e6149ca565b600761227160608c0160408d016149af565b600881111561228257612282613c71565b0361229b5730635b2e9c4c8361209d60608e018e6149ca565b60086122ad60608c0160408d016149af565b60088111156122be576122be613c71565b036123285730630c86ea46836122d760608e018e6149ca565b6040518463ffffffff1660e01b81526004016122f4929190614a2f565b600060405180830381600088803b15801561230e57600080fd5b5087f193505050508015612320575060015b612328575060005b60005a6123359088614a43565b61233d612bf0565b612347919061499c565b905060006123593a8d60a00135612c09565b6123639083614a56565b9050600061239961237860c08f01358461499c565b60018a015473ffffffffffffffffffffffffffffffffffffffff1631612c09565b90506123a3612c1f565b8111156123d05760018801546123d09073ffffffffffffffffffffffffffffffffffffffff163383612a25565b8c60e001358d600001357f617fdb0cb78f01551a192a3673208ec5eb09f20a90acf673c63a0dcb11745a7a8f602001602081019061240e9190614892565b6040805167ffffffffffffffff909216825288151560208301520160405180910390a350505050505050505050505050565b60008181527e96e2f02350077f4ff1746770dbe5db3c04b7db2c8763c8fc21bf66b35e96ac60205260409020600181015473ffffffffffffffffffffffffffffffffffffffff166124bd576040517f6ddd9da900000000000000000000000000000000000000000000000000000000815260040160405180910390fd5b919050565b8051604080517f706172610000000000000000000000000000000000000000000000000000000060208083019190915260e09390931b7fffffffff000000000000000000000000000000000000000000000000000000001660248201528151600881830301815260289091019091528051910120600061254182612440565b905061254c81612c2d565b600061255b8460200151612989565b905080341015612597576040517f1f33573800000000000000000000000000000000000000000000000000000000815260040160405180910390fd5b81546125bb906901000000000000000000900467ffffffffffffffff166001614852565b825467ffffffffffffffff919091166901000000000000000000027fffffffffffffffffffffffffffffff0000000000000000ffffffffffffffffff90911617825560018201546126229073ffffffffffffffffffffffffffffffffffffffff1682612cc4565b8034111561263e5761263e6126378234614a43565b3390612cc4565b81546040805160208101869052690100000000000000000090920460c01b7fffffffffffffffff000000000000000000000000000000000000000000000000169082015260009060480160405160208183030381529060405280519060200120905080847f7153f9357c8ea496bba60bf82e67143e27b64462b49041f8e689e1b05728f84f8560000160099054906101000a900467ffffffffffffffff1688604001516040516126ef929190614a6d565b60405180910390a35050505050565b60008181527e96e2f02350077f4ff1746770dbe5db3c04b7db2c8763c8fc21bf66b35e96ad602052604090205473ffffffffffffffffffffffffffffffffffffffff16806124bd576040517fd3227c9b00000000000000000000000000000000000000000000000000000000815260040160405180910390fd5b6127978373ffffffffffffffffffffffffffffffffffffffff16612d09565b6127cd576040517f6eefed2000000000000000000000000000000000000000000000000000000000815260040160405180910390fd5b818373ffffffffffffffffffffffffffffffffffffffff163f1461281d576040517f8f84fb2400000000000000000000000000000000000000000000000000000000815260040160405180910390fd5b612845837f360894a13ba1a3210667c828492db98dca3e2076cc3735a920a3ca505d382bbc55565b6000808473ffffffffffffffffffffffffffffffffffffffff16836040516024016128709190614497565b604080517fffffffffffffffffffffffffffffffffffffffffffffffffffffffffffffffe08184030181529181526020820180517bffffffffffffffffffffffffffffffffffffffffffffffffffffffff167f439fab9100000000000000000000000000000000000000000000000000000000179052516128f19190614a90565b600060405180830381855af49150503d806000811461292c576040519150601f19603f3d011682016040523d82523d6000602084013e612931565b606091505b50915091506129408282612d6a565b5060405173ffffffffffffffffffffffffffffffffffffffff8616907fbc7cd75a20ee27fd9adebab32041f755214dbc6bffa90cc0225b39da2e5c2d3b90600090a25050505050565b80517f59ef95eb9983b1a4650e1bc666384b8507689fc8aca3edd429d7e07c0ca9d2f7546000917f59ef95eb9983b1a4650e1bc666384b8507689fc8aca3edd429d7e07c0ca9d2f69183916129f9916129f491906fffffffffffffffffffffffffffffffff1661499c565b612d89565b9050612a0e8260000154836002015483612e07565b8460200151612a1d919061499c565b949350505050565b60405173ffffffffffffffffffffffffffffffffffffffff8316602482015260448101829052600090606401604080517fffffffffffffffffffffffffffffffffffffffffffffffffffffffffffffffe08184030181529190526020810180517bffffffffffffffffffffffffffffffffffffffffffffffffffffffff167f7d2e90c2000000000000000000000000000000000000000000000000000000001790529050610df38482612e98565b600081815b8451811015612b0e57612b0482868381518110612af757612af7614aac565b6020026020010151612f74565b9150600101612ad8565b509392505050565b6040517fbc9535d400000000000000000000000000000000000000000000000000000000815260009073__$814b009df1eea0617c5279b3ba0333b56a$__9063bc9535d490612baf907f0000000000000000000000000000000000000000000000000000000000000000907f00000000000000000000000000000000000000000000000000000000000000009088908890600401614c72565b602060405180830381865af4158015612bcc573d6000803e3d6000fd5b505050506040513d601f19601f82011682018060405250810190611a4a91906143bb565b6000612bfd366010614a56565b61180890618b7261499c565b6000818310612c185781611a4a565b5090919050565b60006118083a615208614a56565b7e96e2f02350077f4ff1746770dbe5db3c04b7db2c8763c8fc21bf66b35e96ab805460009060ff166001811115612c6657612c66613c71565b141580612c8957506000825460ff166001811115612c8657612c86613c71565b14155b15612cc0576040517f75884cda00000000000000000000000000000000000000000000000000000000815260040160405180910390fd5b5050565b600080600080600085875af1905080610a06576040517ff4b3b1bc00000000000000000000000000000000000000000000000000000000815260040160405180910390fd5b600073ffffffffffffffffffffffffffffffffffffffff82163f15801590610ab057505073ffffffffffffffffffffffffffffffffffffffff163f7fc5d2460186f7233c927e7db2dcc703c0e500b653ca82273b7bfad8045d85a470141590565b60608215612d79575080610ab0565b8151156101ac5781518083602001fd5b6000612dbd670de0b6b3a76400007fffffffffffffffffffffffffffffffffffffffffffffffffffffffffffffffff614ebe565b821115612df9576040517f1cd951a700000000000000000000000000000000000000000000000000000000815260048101839052602401610d2f565b50670de0b6b3a76400000290565b600080612e1b670de0b6b3a7640000612d89565b90506000612e5e612e4e7f000000000000000000000000000000000000000000000000000000000000000060ff16612d89565b612e58600a612d89565b90612fa3565b90506000612e8283612e7684612e7c8b838c8c6130b8565b906130b8565b906130c7565b9050612e8d816130df565b979650505050505050565b60606000808473ffffffffffffffffffffffffffffffffffffffff16639bb66b287f0000000000000000000000000000000000000000000000000000000000000000866040518363ffffffff1660e01b8152600401612ef89291906144aa565b6000604051808303816000875af1158015612f17573d6000803e3d6000fd5b505050506040513d6000823e601f3d9081017fffffffffffffffffffffffffffffffffffffffffffffffffffffffffffffffe0168201604052612f5d91908101906144d9565b91509150612f6b8282612d6a565b95945050505050565b6000818310612f90576000828152602084905260409020611a4a565b6000838152602083905260409020611a4a565b60008282818303612fce578015612fbb576000612fc5565b670de0b6b3a76400005b92505050610ab0565b670de0b6b3a76400008203612fef57670de0b6b3a764000092505050610ab0565b8060000361300957670de0b6b3a764000092505050610ab0565b670de0b6b3a76400008103613022578492505050610ab0565b670de0b6b3a76400008211156130535761304c613047613041876130f3565b866130b8565b613256565b92506130b0565b6000613074613071846ec097ce7bc90715b34b9f1000000000614ebe565b90565b9050600061308d613047613087846130f3565b886130b8565b90506130ab613071826ec097ce7bc90715b34b9f1000000000614ebe565b945050505b505092915050565b6000611a4a61307184846132c5565b6000611a4a61307184670de0b6b3a7640000856133cc565b6000610ab0670de0b6b3a764000083614ebe565b600081670de0b6b3a764000081101561313b576040517f36d32ef000000000000000000000000000000000000000000000000000000000815260048101849052602401610d2f565b60006131c7670de0b6b3a7640000830460016fffffffffffffffffffffffffffffffff821160071b91821c67ffffffffffffffff811160061b90811c63ffffffff811160051b90811c61ffff811160041b90811c60ff8111600390811b91821c600f811160021b90811c918211871b91821c969096119490961792909217171791909117919091171790565b9050670de0b6b3a7640000810282821c7ffffffffffffffffffffffffffffffffffffffffffffffffff21f494c589c000081016132075750949350505050565b671bc16d674ec800006706f05b59d3b200005b801561324a57670de0b6b3a7640000838002049250818310613242579283019260019290921c915b60011c61321a565b50919695505050505050565b600081680a688906bd8affffff81111561329f576040517fb3b6ba1f00000000000000000000000000000000000000000000000000000000815260048101849052602401610d2f565b60006132b7670de0b6b3a7640000604084901b614ebe565b9050612a1d613071826134d7565b600080807fffffffffffffffffffffffffffffffffffffffffffffffffffffffffffffffff848609848602925082811083820303915050806000036133175750670de0b6b3a764000090049050610ab0565b670de0b6b3a76400008110613362576040517f5173648d0000000000000000000000000000000000000000000000000000000081526004810186905260248101859052604401610d2f565b6000670de0b6b3a7640000858709620400008185030493109091037d40000000000000000000000000000000000000000000000000000000000002919091177faccb18165bd6fe31ae1cf318dc5b51eee0e1ba569b88cd74c1773b91fac106690291505092915050565b600080807fffffffffffffffffffffffffffffffffffffffffffffffffffffffffffffffff858709858702925082811083820303915050806000036134245783828161341a5761341a614e8f565b0492505050611a4a565b83811061346e576040517f63a05778000000000000000000000000000000000000000000000000000000008152600481018790526024810186905260448101859052606401610d2f565b60008486880960026001871981018816978890046003810283188082028403028082028403028082028403028082028403028082028403029081029092039091026000889003889004909101858311909403939093029303949094049190911702949350505050565b7780000000000000000000000000000000000000000000000067ff000000000000008216156135f85767800000000000000082161561351f5768016a09e667f3bcc9090260401c5b67400000000000000082161561353e576801306fe0a31b7152df0260401c5b67200000000000000082161561355d576801172b83c7d517adce0260401c5b67100000000000000082161561357c5768010b5586cf9890f62a0260401c5b67080000000000000082161561359b576801059b0d31585743ae0260401c5b6704000000000000008216156135ba57680102c9a3e778060ee70260401c5b6702000000000000008216156135d95768010163da9fb33356d80260401c5b6701000000000000008216156135f857680100b1afa5abcbed610260401c5b66ff0000000000008216156136f75766800000000000008216156136255768010058c86da1c09ea20260401c5b6640000000000000821615613643576801002c605e2e8cec500260401c5b662000000000000082161561366157680100162f3904051fa10260401c5b661000000000000082161561367f576801000b175effdc76ba0260401c5b660800000000000082161561369d57680100058ba01fb9f96d0260401c5b66040000000000008216156136bb5768010002c5cc37da94920260401c5b66020000000000008216156136d9576801000162e525ee05470260401c5b66010000000000008216156136f75768010000b17255775c040260401c5b65ff00000000008216156137ed5765800000000000821615613722576801000058b91b5bc9ae0260401c5b6540000000000082161561373f57680100002c5c89d5ec6d0260401c5b6520000000000082161561375c5768010000162e43f4f8310260401c5b6510000000000082161561377957680100000b1721bcfc9a0260401c5b650800000000008216156137965768010000058b90cf1e6e0260401c5b650400000000008216156137b3576801000002c5c863b73f0260401c5b650200000000008216156137d057680100000162e430e5a20260401c5b650100000000008216156137ed576801000000b1721835510260401c5b64ff000000008216156138da5764800000000082161561381657680100000058b90c0b490260401c5b6440000000008216156138325768010000002c5c8601cc0260401c5b64200000000082161561384e576801000000162e42fff00260401c5b64100000000082161561386a5768010000000b17217fbb0260401c5b640800000000821615613886576801000000058b90bfce0260401c5b6404000000008216156138a257680100000002c5c85fe30260401c5b6402000000008216156138be5768010000000162e42ff10260401c5b6401000000008216156138da57680100000000b17217f80260401c5b63ff0000008216156139be5763800000008216156139015768010000000058b90bfc0260401c5b634000000082161561391c576801000000002c5c85fe0260401c5b632000000082161561393757680100000000162e42ff0260401c5b6310000000821615613952576801000000000b17217f0260401c5b630800000082161561396d57680100000000058b90c00260401c5b63040000008216156139885768010000000002c5c8600260401c5b63020000008216156139a3576801000000000162e4300260401c5b63010000008216156139be5768010000000000b172180260401c5b62ff0000821615613a9957628000008216156139e3576801000000000058b90c0260401c5b624000008216156139fd57680100000000002c5c860260401c5b62200000821615613a175768010000000000162e430260401c5b62100000821615613a3157680100000000000b17210260401c5b62080000821615613a4b5768010000000000058b910260401c5b62040000821615613a65576801000000000002c5c80260401c5b62020000821615613a7f57680100000000000162e40260401c5b62010000821615613a99576801000000000000b1720260401c5b61ff00821615613b6b57618000821615613abc57680100000000000058b90260401c5b614000821615613ad55768010000000000002c5d0260401c5b612000821615613aee576801000000000000162e0260401c5b611000821615613b075768010000000000000b170260401c5b610800821615613b20576801000000000000058c0260401c5b610400821615613b3957680100000000000002c60260401c5b610200821615613b5257680100000000000001630260401c5b610100821615613b6b57680100000000000000b10260401c5b60ff821615613c34576080821615613b8c57680100000000000000590260401c5b6040821615613ba4576801000000000000002c0260401c5b6020821615613bbc57680100000000000000160260401c5b6010821615613bd4576801000000000000000b0260401c5b6008821615613bec57680100000000000000060260401c5b6004821615613c0457680100000000000000030260401c5b6002821615613c1c57680100000000000000010260401c5b6001821615613c3457680100000000000000010260401c5b670de0b6b3a76400000260409190911c60bf031c90565b6103cd80614efa83390190565b600060208284031215613c6a57600080fd5b5035919050565b7f4e487b7100000000000000000000000000000000000000000000000000000000600052602160045260246000fd5b6020810160028310613cb457613cb4613c71565b91905290565b803573ffffffffffffffffffffffffffffffffffffffff811681146124bd57600080fd5b600060208284031215613cf057600080fd5b611a4a82613cba565b60008083601f840112613d0b57600080fd5b50813567ffffffffffffffff811115613d2357600080fd5b602083019150836020828501011115613d3b57600080fd5b9250929050565b60008060208385031215613d5557600080fd5b823567ffffffffffffffff811115613d6c57600080fd5b613d7885828601613cf9565b90969095509350505050565b60008060008060608587031215613d9a57600080fd5b613da385613cba565b935060208501359250604085013567ffffffffffffffff811115613dc657600080fd5b613dd287828801613cf9565b95989497509550505050565b63ffffffff811681146106f657600080fd5b80356124bd81613dde565b80356fffffffffffffffffffffffffffffffff811681146124bd57600080fd5b600080600080600060a08688031215613e3357600080fd5b613e3c86613cba565b94506020860135613e4c81613dde565b9350604086013567ffffffffffffffff811115613e6857600080fd5b860160408189031215613e7a57600080fd5b9250613e8860608701613dfb565b9150613e9660808701613dfb565b90509295509295909350565b600080600060608486031215613eb757600080fd5b613ec084613cba565b92506020840135613ed081613dde565b9150613ede60408501613dfb565b90509250925092565b60006101408284031215613efa57600080fd5b50919050565b60008060008060608587031215613f1657600080fd5b843567ffffffffffffffff80821115613f2e57600080fd5b908601906101008289031215613f4357600080fd5b90945060208601359080821115613f5957600080fd5b818701915087601f830112613f6d57600080fd5b813581811115613f7c57600080fd5b8860208260051b8501011115613f9157600080fd5b602083019550809450506040870135915080821115613faf57600080fd5b50613fbc87828801613ee7565b91505092959194509250565b7f4e487b7100000000000000000000000000000000000000000000000000000000600052604160045260246000fd5b6040805190810167ffffffffffffffff8111828210171561401a5761401a613fc8565b60405290565b6040516060810167ffffffffffffffff8111828210171561401a5761401a613fc8565b604051610140810167ffffffffffffffff8111828210171561401a5761401a613fc8565b6040516020810167ffffffffffffffff8111828210171561401a5761401a613fc8565b604051601f82017fffffffffffffffffffffffffffffffffffffffffffffffffffffffffffffffe016810167ffffffffffffffff811182821017156140d1576140d1613fc8565b604052919050565b6000604082840312156140eb57600080fd5b6140f3613ff7565b9050815181526020820151602082015292915050565b600067ffffffffffffffff82111561412357614123613fc8565b50601f017fffffffffffffffffffffffffffffffffffffffffffffffffffffffffffffffe01660200190565b60005b8381101561416a578181015183820152602001614152565b50506000910152565b600082601f83011261418457600080fd5b815161419761419282614109565b61408a565b8181528460208386010111156141ac57600080fd5b612a1d82602083016020870161414f565b6000602082840312156141cf57600080fd5b815167ffffffffffffffff808211156141e757600080fd5b90830190608082860312156141fb57600080fd5b614203614020565b825161420e81613dde565b815261421d86602085016140d9565b602082015260608301518281111561423457600080fd5b61424087828601614173565b60408301525095945050505050565b60006060828403121561426157600080fd5b614269614020565b8235815261427960208401613dfb565b6020820152604083013560408201528091505092915050565b8035600281106124bd57600080fd5b6000606082840312156142b357600080fd5b6142bb614020565b82358152602083013560208201526142d560408401614292565b60408201529392505050565b600082601f8301126142f257600080fd5b813561430061419282614109565b81815284602083860101111561431557600080fd5b816020850160208301376000918101602001919091529392505050565b60006020828403121561434457600080fd5b813567ffffffffffffffff8082111561435c57600080fd5b908301906060828603121561437057600080fd5b614378614020565b61438183613cba565b81526020830135602082015260408301358281111561439f57600080fd5b614240878286016142e1565b805180151581146124bd57600080fd5b6000602082840312156143cd57600080fd5b611a4a826143ab565b6000602082840312156143e857600080fd5b813567ffffffffffffffff8082111561440057600080fd5b908301906040828603121561441457600080fd5b61441c613ff7565b8235815260208301358281111561443257600080fd5b61443e878286016142e1565b60208301525095945050505050565b6000815180845261446581602086016020860161414f565b601f017fffffffffffffffffffffffffffffffffffffffffffffffffffffffffffffffe0169290920160200192915050565b602081526000611a4a602083018461444d565b73ffffffffffffffffffffffffffffffffffffffff83168152604060208201526000611a47604083018461444d565b600080604083850312156144ec57600080fd5b6144f5836143ab565b9150602083015167ffffffffffffffff81111561451157600080fd5b61451d85828601614173565b9150509250929050565b6000610140828403121561453a57600080fd5b614542614043565b61454b83614292565b815261455960208401613dfb565b60208201526040830135604082015261457460608401613df0565b60608201526080830135608082015261458f60a08401613dfb565b60a08201526145a060c08401613dfb565b60c082015260e083013560e08201526101008084013581830152506101206145c9818501613cba565b908201529392505050565b60008083357fffffffffffffffffffffffffffffffffffffffffffffffffffffffffffffffe184360301811261460957600080fd5b830160208101925035905067ffffffffffffffff81111561462957600080fd5b803603821315613d3b57600080fd5b8183528181602085013750600060208284010152600060207fffffffffffffffffffffffffffffffffffffffffffffffffffffffffffffffe0601f840116840101905092915050565b73ffffffffffffffffffffffffffffffffffffffff88811682528716602082015263ffffffff8616604082015260e0606082015260008535600381106146c657600080fd5b60e08301526146d860208701876145d4565b60406101008501526146ef61012085018284614638565b6fffffffffffffffffffffffffffffffff978816608086015295871660a0850152505050921660c090920191909152949350505050565b60006060828403121561473857600080fd5b614740614020565b61474983613dfb565b815261427960208401613dfb565b60006040828403121561476957600080fd5b611a4a83836140d9565b60006020828403121561478557600080fd5b61478d614067565b61479683614292565b81529392505050565b6000606082840312156147b157600080fd5b6147b9614020565b8235815261427960208401613cba565b6000604082840312156147db57600080fd5b6147e3613ff7565b823581526147f360208401614292565b60208201529392505050565b60006020828403121561481157600080fd5b614819614067565b9135825250919050565b7f4e487b7100000000000000000000000000000000000000000000000000000000600052601160045260246000fd5b67ffffffffffffffff81811683821601908082111561487357614873614823565b5092915050565b803567ffffffffffffffff811681146124bd57600080fd5b6000602082840312156148a457600080fd5b611a4a8261487a565b600067ffffffffffffffff8083168181036148ca576148ca614823565b6001019392505050565b8035600981106124bd57600080fd5b602081528135602082015267ffffffffffffffff6149036020840161487a565b1660408201526000614917604084016148d4565b6009811061492757614927613c71565b8060608401525061493b60608401846145d4565b61010080608086015261495361012086018385614638565b92506149616080870161487a565b67ffffffffffffffff811660a0870152915060a086013560c086015260c086013560e086015260e08601358186015250508091505092915050565b80820180821115610ab057610ab0614823565b6000602082840312156149c157600080fd5b611a4a826148d4565b60008083357fffffffffffffffffffffffffffffffffffffffffffffffffffffffffffffffe18436030181126149ff57600080fd5b83018035915067ffffffffffffffff821115614a1a57600080fd5b602001915036819003821315613d3b57600080fd5b602081526000611a47602083018486614638565b81810381811115610ab057610ab0614823565b8082028115828204841417610ab057610ab0614823565b67ffffffffffffffff83168152604060208201526000611a47604083018461444d565b60008251614aa281846020870161414f565b9190910192915050565b7f4e487b7100000000000000000000000000000000000000000000000000000000600052603260045260246000fd5b60008083357fffffffffffffffffffffffffffffffffffffffffffffffffffffffffffffffe1843603018112614b1057600080fd5b830160208101925035905067ffffffffffffffff811115614b3057600080fd5b8060051b3603821315613d3b57600080fd5b600082357fffffffffffffffffffffffffffffffffffffffffffffffffffffffffffffffa1833603018112614b7657600080fd5b90910192915050565b81835260007f07ffffffffffffffffffffffffffffffffffffffffffffffffffffffffffffff831115614bb157600080fd5b8260051b80836020870137939093016020019392505050565b80358252602081013560208301526000614be76040830183614adb565b60606040860152612f6b606086018284614b7f565b803560ff8116808214614c0e57600080fd5b8352506020810135614c1f81613dde565b63ffffffff80821660208501526040830135604085015267ffffffffffffffff614c4b6060850161487a565b16606085015260808301359150614c6182613dde565b16608083015260a090810135910152565b73ffffffffffffffffffffffffffffffffffffffff85168152600060207fffffffff0000000000000000000000000000000000000000000000000000000080871682850152604086604086015260606080606087015286357fffffffffffffffffffffffffffffffffffffffffffffffffffffffffffffff61883603018112614cfa57600080fd5b87810190506101406080880152610260870181356101c0890152858201356101e089015260408201356102008901526060820135610220890152614d416080830183614adb565b60a06102408b015291829052909150610280600583901b8901810191908901816000805b86811015614ded577ffffffffffffffffffffffffffffffffffffffffffffffffffffffffffffffd808d8703018452614d9e8386614b42565b803587528b8101358b8116808214614db4578485fd5b888e015250614dc5818b01826145d4565b9150898b890152614dd98a89018383614638565b97505050928a0192918a0191600101614d65565b5050505050614dfe868a018a614b42565b95507fffffffffffffffffffffffffffffffffffffffffffffffffffffffffffffff809450848882030160a0890152614e378187614bca565b955050505050614e4d60c0850160408701614bfc565b614e5b610100860186614adb565b8286850301610180870152614e71848284614b7f565b93505050506101208401356101a08401528091505095945050505050565b7f4e487b7100000000000000000000000000000000000000000000000000000000600052601260045260246000fd5b600082614ef4577f4e487b7100000000000000000000000000000000000000000000000000000000600052601260045260246000fd5b50049056fe60c0604052348015600f57600080fd5b506040516103cd3803806103cd833981016040819052602c916037565b6080523360a052604f565b600060208284031215604857600080fd5b5051919050565b60805160a051610354610079600039600081816056015261012e0152600060e201526103546000f3fe6080604052600436106100385760003560e01c8063338c5371146100445780639bb66b28146100a2578063e905182a146100d057600080fd5b3661003f57005b600080fd5b34801561005057600080fd5b506100787f000000000000000000000000000000000000000000000000000000000000000081565b60405173ffffffffffffffffffffffffffffffffffffffff90911681526020015b60405180910390f35b3480156100ae57600080fd5b506100c26100bd3660046101f9565b610112565b604051610099929190610297565b3480156100dc57600080fd5b506101047f000000000000000000000000000000000000000000000000000000000000000081565b604051908152602001610099565b600060603373ffffffffffffffffffffffffffffffffffffffff7f00000000000000000000000000000000000000000000000000000000000000001614610185576040517f82b4290000000000000000000000000000000000000000000000000000000000815260040160405180910390fd5b8473ffffffffffffffffffffffffffffffffffffffff1684846040516101ac92919061030e565b600060405180830381855af49150503d80600081146101e7576040519150601f19603f3d011682016040523d82523d6000602084013e6101ec565b606091505b5091509150935093915050565b60008060006040848603121561020e57600080fd5b833573ffffffffffffffffffffffffffffffffffffffff8116811461023257600080fd5b9250602084013567ffffffffffffffff8082111561024f57600080fd5b818601915086601f83011261026357600080fd5b81358181111561027257600080fd5b87602082850101111561028457600080fd5b6020830194508093505050509250925092565b82151581526000602060406020840152835180604085015260005b818110156102ce578581018301518582016060015282016102b2565b5060006060828601015260607fffffffffffffffffffffffffffffffffffffffffffffffffffffffffffffffe0601f830116850101925050509392505050565b818382376000910190815291905056fea26469706673582212206ad7433b63f9bce7139b1b0e3755382c4c40cfd7da37715d22c0c1fda510dfe564736f6c63430008190033a2646970667358221220560171dbeea5f34ae2fc4fafadb286487df0182556ba132fbc7f746cececb6b364736f6c63430008190033",
    "linkReferences": {
      "src/Assets.sol": {
        "Assets": [
          {
            "start": 2159,
            "length": 20
          },
          {
            "start": 3153,
            "length": 20
          },
          {
            "start": 6320,
            "length": 20
          },
          {
            "start": 6686,
            "length": 20
          },
          {
            "start": 7181,
            "length": 20
          }
        ]
      },
      "src/Verification.sol": {
        "Verification": [
          {
            "start": 11584,
            "length": 20
          }
        ]
      }
    }
  },
  "methodIdentifiers": {
    "AGENT_EXECUTOR()": "423e69b6",
    "BEEFY_CLIENT()": "90ffc4f9",
    "agentExecute(bytes)": "35ede969",
    "agentOf(bytes32)": "5e6dae26",
    "channelNoncesOf(bytes32)": "2a6c3229",
    "channelOperatingModeOf(bytes32)": "0705f465",
    "createAgent(bytes)": "c3b8ec8e",
    "createChannel(bytes)": "17abcf60",
    "dropRescueAbility()": "cd5a76de",
    "implementation()": "5c60da1b",
    "initialize(bytes)": "439fab91",
    "isTokenRegistered(address)": "26aa101f",
    "operatingMode()": "38004f69",
    "pricingParameters()": "0b617646",
    "quoteRegisterTokenFee()": "805ce31d",
    "quoteSendTokenFee(address,uint32,uint128)": "928bc49d",
    "registerToken(address)": "09824a80",
    "rescue(address,bytes32,bytes)": "3c9c3b45",
    "rescueOperator()": "eac09209",
    "sendToken(address,uint32,(uint8,bytes),uint128,uint128)": "52054834",
    "setOperatingMode(bytes)": "8257f3d5",
    "setPricingParameters(bytes)": "0c86ea46",
    "setTokenTransferFees(bytes)": "5b2e9c4c",
    "submitV1((bytes32,uint64,uint8,bytes,uint64,uint256,uint256,bytes32),bytes32[],((bytes32,uint256,bytes32,bytes32,(uint256,bytes4,bytes)[]),(uint256,uint256,bytes32[]),(uint8,uint32,bytes32,uint64,uint32,bytes32),bytes32[],uint256))": "df4ed829",
    "transferNativeFromAgent(bytes)": "9a870c8b",
    "updateChannel(bytes)": "afce33c4",
    "upgrade(bytes)": "25394645"
  },
  "id": 58
}